S02B0000416C6C5F4D65676152665F41746D656761323536726672325F384D687A5F4763632F4578652F417000
S2840000000C949F260C94F0EF0C941CF00C9448F00C9474F00C94A0F00C94CCF00C94F8F00C9424F10C9450F10C947CF10C94E6260C94E6260C9401EC0C94E6260C9457EC0C94E6260C94E6260C94E6260C94E6260C94E6260C94E6260C94E6260C94E6260C94AEF20C94BAEE0C945DEE0C948CEE0C94E6260C943FF20C9416F20C94E62626
S2840000800C94E6260C94E6260C94E6260C94E6260C9454EF0C94F7EE0C9426EF0C94AFF10C94E6260C94E6260C94B1DD0C9414E00C94E6260C94E6260C94E6260C94E6260C94E6260C94E6260C94E6260C94E6260C94E6260C94E6260C94E6260C94E6260C94E6260C94E6260C94E6260C94E6260C9470E00C94E6260C94E6260C9498E0B4
S2840001000C94E6260C94E6260C94E6260C94E6260C94E6260C94E6260C94E6260C94C0E00C94E6260C94E6260C94E6260C94E6260C94E626000000000000000000000000000000000000000000000000000000000000000000000000000000000000000000000000000000000000000000000000000000000000000000000000000000002A
S2840001800000000000000000000000000000000000000000000000000000000000000000000000000000000000000000000000000000000000000000000000000000000000000000000000000000000000000000000000000000000000000000000000000000000000000000000000000000000000000000000000000000000000000000FA
S284000200000000000000000000000000000000000000000000000000000000000000000000000000000000000000000000000000000000000000000000000000000000000000000000000000000000000000000000000000000000000000000000000000000000000000000000000000000000000000000000000000000000000000000079
S2840002800000000000000000000000000000000000000000000000000000000000000000000000000000000000000000000000000000000000000000000000000000000000000000000000000000000000000000000000000000000000000000000000000000000000000000000000000000000000000000000000000000000000000000F9
S284000300000000000000000000000000000000000000000000000000000000000000000000000000000000000000000000000000000000000000000000000000000000000000000000000000000000000000000000000000000000000000000000000000000000000000000000000000000000000000000000000000000000000000000078
S2840044002C0E160019001F0C030018005B07BD001700CE12010016008213080015000F1301001400061302001300721301002600151301001E00051301000F008C1301000E00761301000D007E1302000C00CF1201000B00C91202000A00EC1211000900E21201000800E11201000700E012010006007313010005007C1301000400C41272
S28400448004000300FD1208000200C21201000100A61208000000744712002E00984715002D00C24719002C00F44704002A00FC4711002900F94E164E374F374F374F1B4E254E374F374F2D4E324E5A4E634E374F684E704E7A4E374F834E884E374F914ECC4EDE4E374FD14ED94EF94EF94EF94EF04EF04EF04EF04EF04EF04EF04EF04E0D
S284004500F04EF04EF04EF04EF04EF04EF04EF04EF04EA44EF04E374F374F374F374F374F374F374F374F374F374F374F374F374F374FF04EEB4EF94EF04E9E4EE34EFB4EF94E124F204F274FF94EF94EF94E93500050DA50DA50DA5006500B50AE50DA500E50115022502750DA502A502D503050DA5035503850AE503D5087509C50DA503E
S2840045808A508D50045090509050AE50AE50AE50AE50AE50AE50AE50AE50AE50AE50AE50AE50AE50AE50AE50AE50AE506D50AE50DA50DA50DA50DA50DA50DA50DA50DA50DA50DA50DA50DA50DA50DA50AE50A450A750AE5065509F50B650BF50B950BC50DA50CD50D250D850DF51E151EC51E351E551E751E951BE51EF51F151BE51F45160
S28400460049524C525052535257525B525E5262526252BE56FC56FC56FC56C556E256D356DA560D57CC56E956E956F056FC560457085768576B576E576E5770577A5774577757875772577D577F578157845770597359945976597A5994597E59945989598C599259FB5CA85DB75DB65CFE5DFE5DB35DB75DBC5DEA5DD35DFE5DFE5DEA5D8B
S284004680E95CEC5D04960C96239695969596EC95F995959695969596439652966F967B969596E9951796B595829A829AAB99B399B399C099C099DD99DD99DD993B9A3B9A3B9AD69A829A81A8D3A8A7A8ABA8ABA8ABA8ABA8ABA8AFA8AFA80EBC11BCB2BCB2BC16BCB2BC20BC09BD09BD09BD09BD09BD09BD09BD09BD09BDB2BCB2BC09BD3B
S28400470009BC1BBCB2BC89C7D7C7D7C7D7C7D7C7D7C7C6C7B0C7CEC7D7C7C0C7D7C7CAC7D2C7ADC988CA65CB90CBCFCBFBCC44CD26D326D326D326D326D326D326D326D326D37BCC89CC26D326D3B0CC47CB2ED536D548D551D553D555D557D55AD52DD6A5D6A5D653D65CD66CD675D678D67BD67ED684D600000100020003000400050061
S28400478006000700080009000A000B000C000D000E000F001E00180000000100020003000400050006000700080009000A000B000C000D000E000F001E00130014001500160000000100020003000400050006000700080009000A000B000C000D000E000F001E001300140015001600170018001900260013001400150016000000010084
S284004800020003000400050006000700080009000A000B000C000D000E000F001E00C40500005B070000B5060000180800004F0700000000000042080000AC0D0000040E0000560B0000A80B0000720B0000DF0B0000220C0000660D000000000000000000001F0C00002C0E000000000000000000000000000000000000000000000000AC
S28400488000000000000000000000000000000000000000000000000000000000000000000000420E00006A0E000049060000A64A0200AA4A0100AD4A0100AB4A0200B04A0100B14A0100B24A0100B34A0100B44A0100B54A0100B64A0200AE4A0200B84A0100B94A0100D24A0200C34A0100C44A0100C54A0100CE4A0400BA4A0100BB4A61
S2840049000400BF4A0100C04A0100CA4A0100CB4A0100CC4A0200000000000000000000000000000000000000000000000000000000000000000000000000000000000000000000000000C14A0100C24A0100D44A0100D54A0100D64A0100D74A010000000000C64A0400A84A0200A6120800B0120100BE120400C2120100C41204007A13A0
S28400498001007B130100821308007E130200061302000F130100761301008C1301007C130100CB120100CC120100CD120100CE120100C9120200CF120100D012010078130100771301008112010082120100FD120800E3120400D8120400DC120400E0120100E1120100E2120100EC12110073130100E7120100E812040070120100831228
S284004A00020005130100C81201000000000000000000711201000000000000000000000000000000000000000000000000000000000000000000000000000000000000000000D1120500D6120100D712010000000000000000000000000000000000000000000000000000000000B212010000000000000000000000000000000000000037
S284004A800000000000000000000000000000000000000000000000000000C3120100B8120100B112010085006C0001000007050007040205040204000308FF140000000108030303020A901A00000100000000000303141061620003001E000003F400800000013412000303000002000000000003034C1D000010270000010001E80300E4
S284004B000004E80300001041746D656C2020202020202020202020FECAAAAAAAAAAA1A0002030100000000000000000000000000000005FF00000000000000000000000000000000000000000000000000000000000000000000000000000000000000000000000000000000000000000000000000000000000000000000000000000000A0
S284004B8000000000000000000000000000000000000000000000000000000000000000000000000002010002020508080000FFFF34120000000000000000020201E33F1F45000000000000000000000000023E7C1C7701078697C87101018697C8710101FD7B2F8F0101827B8E9E0101827B5D9E0107377BB8710101DF7AAA8401010000F5
S284004C00000001070000000001010000000001030000B26901040000B269010500000000010600000000010D00000000010186970000000100000000010E00000000010700000000010A0000000001000000000001010000000001010000000000000000A57500090000A575000C0000A57500000000A575004078127E459509A845747B00
S284004C809B5579FB79CB72B8800187DE75B79EDC784A73337200000000FD718080000000006767776AFD67D267F66700006E677C67EB6775676D6A256769697069DF69616904680000C76A02010203030202010101010101010101020201010102010202020202020102020202020201030302020340A66C9C23959F9D0000A2A4228E5943
S284004D00A9000000008BB6A6BB5BC56EBE36D340C424E224E224E224E296E35CE134F3D2EBC5DE03DE67EA07ED0BEA98E813E725E277E3A3E4B6E275E3A1E4B4E20011248091EE17823159F084B780FD04C08F718093EE1707C081E08093EE1703C081E18093EE1714BE8091600088618093600010926000EFEEF7E18DEC01C0819390E73A
S284004D80E030F907D9F3D0F311241FBEC0E0D0E7DEBFCDBF00E00CBF13E0A0E0B2E0ECEFFAEE01E00BBF02C007900D92A232B107D9F727E1A2E2B3E001C01D92AE3EB207E1F70E94D1300E94E730FDCF0C9400007F937FB7F8949D9AA5988AEF4DD08AEF4BD09D9886E448D081E0959980E08F9380EF42D08F917FBF7F9108957F937FB729
S284004E00F8949D9AA59886E037D09D988AE034D0889495990894881F8F9384E62DD08F917FBF7F9108959F937F9398E0E7DF879577959A959923D1F7872F7F919F9108957F937FB7F894A5989D9A8F9386E014D08F91879508F49D988F9384E60DD08F919D987FBF7F9108959F9398E0E9DF9A959923E1F79F910895000000000000000040
S284004E808A958823C9F708955F937F937FB7F894CF93DF93C0E0D0E07F935091B2007091B2007517E1F3739521965091B2005717D9F77F91CE01DF91CF917FBF7F915F91089584E080932C022FB7F8948091890490918A04906190938A04809389042FBF089585E080932C022FB7F8948091890490918A04906190938A04809389042FBF04
S284004F000895EF920F9380912C02843049F1853089F1833009F065C001D188EE93E0A0E0B0E08093340390933503A0933603B09337031092380381E697E290933A03809339038EE293E00E94ABE180E092E00E94BBE5019609F042C06BE084EC92E03DC080E092E00E94D9E50196C1F56AE080ED92E033C02091260330E0322F2227809159
S284004F802703282B30932503209324038091280390E0982F882740912903842B909323038093220340E050E064E0E62E05E06EE08EE192E016D1209122033091230340E050E006E06DE081E192E00BD16EE08EE192E0D3D06DE081E192E0CFD086E080932C020F91EF9008950895089508950895CF92DF92FF920F931F93CF93DF93E42F81
S284005000F0E0F09037042AEF30E02F1931092E173F0734F15091360420E030E0EC01C60FD11D0AEF10E02E173F07ACF4852F90E0BC01655C7C4F6B01BE01620F731FDB015C91D6015C932F5F3F4F0196B8010E94FDF3582FE8CF50933604F40EF0923704DF91CF911F910F91FF90DF90CF9008951F93CF93DF9310926A0410926B041091B2
S2840050803704112309F446C080913504E8E3F4E01333E0F4212F30E0CAEFD0E0AF0148535440421753075CF490E0DC01A55CBC4F4C9141930196BE010E94FDF3EFCF8093350410936A041092370418C02AEF30E090E0DC01A55CBC4F4C9141930196B9010E94FDF394E0EA36F90791F78093350482E380936A0412531093370481E08093AE
S2840051006B0440916A0450E068E374E08AE695E00E940CE5DF91CF911F91089588EC809375051092760589E190E0909378058093770586E08093790510927A0510927B0510928A0510927F0510927E0510928105109280051092830510928205109285051092840588E398E290938905809388058AE695E00C94ADE40895462F20916B04C4
S284005180222319F060E034CF0895FC01A8E3B4E0633370F4862F90E09D0128533440281739071CF421912D93F7CF40936A040CC021912D9324E0AA36B207D1F722E320936A04425362E314DF81E080936B0440916A0450E068E374E08AE695E00C940CE50895A0E0B0E0E7EFF8E20C947FF4F12CF701E00FF11DC62FD0E0CE17DF07ECF0E1
S284005200C0E0D0E08C010E0F1F1F6AE0862E912CA12CB12C2197F701EC0FFD1F319669F06801CC0EDD1EB901CA01A50194010E9410F4605DF6016083EDCFCDB7DEB7ECE00C949BF4A2E0B0E0E8E2F9E20C9481F46C0100918B0510918C05E12CF12C80918F0590919005E816F906A8F45801B8016C5F7F4F42E050E0CE0101960E9447F5AF
S2840052800A5F1F4F29813A812C153D0539F08FEFE81AF80AE4CF80E090E001C0C5012296EAE00C949DF4ADE0B0E0E9E5F9E20C9483F47C016B0123E0969587952A95E1F7FC01E557FA4F228D30E0B70167707727062E02C0369527950A94E2F78E010F5F1F4F20FF42C027E0E5EAF5E0D80101900D922A95E1F7A0E020E030E04A2F50E069
S28400530048175907D8F4F801E40FF51F4081542F569555754575540F452F4695469543735373450F4083E42FEF7042954F7050E04E0F511D240F351FAF5FE0CFE0E0D801A80FB91F4E2F50E04617570780F44C9150E00E2E02C0569547950A94E2F741705527240F351FEF5FEDCF2FEF3FEF1B870A8746E0429FC001439F900D11240496E3
S2840053809987888786E090E09D878C8765E07BE2CE01089672D18D819E81E816F90639F084E090EA9093BF058093BE05E1D589819A81F601918380832D96E8E00C949FF4A6E0B0E0E6EEF9E20C9485F47C018B0180E090E0FC0133E0F695E7953A95E1F7EE0DFF1D6081AC0147705527262F30E0042E02C0369527950A94E2F720FF0DC0F5
S28400540021E030E001C0220F4A95EAF720952623208318DF009731F431C0019683339105C9F62CC046E050E0BC01CE0101960E9447F589819A81F80193838283B8018D819E8131DFF801808191810596918380838B819C819583848382819381892B39F480E090EA9093BF058093BE0581D58D819E81F7019087878381E006C08FEF9FEFA7
S284005480F7019087878380E02696E6E00C94A1F4A8E0B0E0EEE4FAE20C947FF47C01A0908D05B0908E05FC01868182FD09C000E010E0812C76E0972ECC24C394D12C0CC047E050E06FEF70E0C7010E9477F56DC0882483940F5F1F4F80919105909192050817190708F05BC0909EB001919E700D11246A0D7B1D46E050E0CE0101960E9413
S28400550047F52D813E81F90163E0F695E7956A95E1F7EE0DFF1D408127703327842F90E0022E02C0969587950A94E2F780FFD2CFC60102C0880F991F2A95E2F79C01209524232083812C882D90E02B813C818217930708F0BDCF880F991F69817A81680F791F42E050E0CE0107960E9447F58F819885FC0153E0F695E7955A95E1F7EE0D03
S284005580FF1D87709927960102C0220F331F8A95E2F7C9019081982B90838394D4CF882021F000E010E0812C97CF2896ECE00C949BF4CF93DF93EC018FEF9FEF98878F8387E0FB01DE0101900D928A95E1F7CE015FDFE5EAF5E0919188818923899385E0EC3AF807C1F7DF91CF9108958091B9059091BA05A7C208951092B60586EF9AE282
S2840056009093B8058093B70508950895EEE9F5E0DC013D91CD012081232B2193B5E0E53AFB07B1F78091BB0584608093BB0508950E9491E8882311F0DFD5FACF0895A2E0B0E0E5E2FBE20C9487F48B0189839A83EFDFB80189819A810E94B4E7019631F08BE20530180721F4E3DF02C081E001C080E02296E4E00C94A3F4A2E0B0E0E3E481
S284005680FBE20C9487F48B0189839A83D1DFB80189819A810E9441E7019631F08BE20530180721F4C5DF02C081E001C080E02296E4E00C94A3F4A2E1B0E0E1E6FBE20C947CF48091BB05982F92609093BB0582FF0AC06EE975E08CE694E06BDF8091BB058B7F8093BB05CC24C394D12C7E013DE0E30EF11C55E0A52EB12C4E0182E1880E63
S284005700911CBE01695F7F4F8CE694E059DE882309F462C06090730470907404F30163E0F695E7956A95E1F7E557FA4FC30187709927960102C0220F331F8A95E2F7C901809593898923838BFC82EB82BE82AD828F81988505979A83898365E07BE2CE0101968BDF4B855C8569857A8580E05ED0582E8D8558123AC08889998968167906A8
S284005780A9F52B853C858E859F852817390771F59C828B82DE82CD8200E010E02B853C850217130708F0ADCF2F813885200F311F3A83298365E07BE2CE0101965EDFAB81BC81E985FA85E00FF11F9C91808198130DC00F5F1F4FE2CF8091BB058D7F8093BB0560E070E08FE001D21CC05D86798A688A8B859C859F878E87FC82EB8285E0A3
S28400580090E09E838D838F81988505979A8389836BE57BE2CE01079612DF65E07BE2CE0101960DDF6296EFE00C9498F4FB01460F571FE417F50719F09191890FFACF08954F925F927F928F929F92AF92BF92CF92DF92EF92FF920F931F93CF93DF93CDB7DEB762970FB6F894DEBF0FBECDBF80E094E490938C0580938B0586E994E4909353
S2840058808E0580938D0506E914E400501444C80166E070E00E94E9F3892B39F080E290EA9093BF058093BE0563D326E030E0C801B9010E94E9F340918F0550919005642B752B7093900560938F0504EB14E406591444C801B9010E94E9F3892B39F081E290EA9093BF058093BE0542D3C80166E070E00E94E9F38091910590919205682B19
S284005900792B709392056093910500918B0510918C051092930510929405109295051092960587E0E5EAF5E0DF011D928A95E9F7D12CEE24E394F12C80918F05909190052D2D30E028173907C8F546E050E0B801CE0101960E9447F52B813C812B5F3F4F8091930590919405A0919505B0919605820F931FA11DB11D8093930590939405C9
S284005980A0939505B09396058D819E81FC0133E0F695E7953A95E1F7E557FA4F87709927970102C0220F331F8A95E2F7C901928D982B928F0A5F1F4FD394BECF26E0289F6001299FD00C112434E0C30ED11CE12CF12CCE010796988B8F8786E090E09A8B898BA12CB12C00E010E096E0792E22E2822E20EA922EF80183E0F695E7958A9515
S284005A00E1F7E557FA4F828D90E098012770332702C0969587952A95E2F780FF41C07A9CC0017B9C900D112404969E878D8765E07BE2CE010D9621DE8B859C858017910749F48F819885A985BA858C159D05AE05BF0559F01C870B87CF82D886E986FA8665E07BE2CE010D96EADDC801EBDB2C01009729F49092BF058092BE0579D246E070
S284005A8050E0B201CE0101960E9447F58B819C810596C80ED91EE11CF11C8FEFA81AB80A0F5F1F4F0333110509F0A5CFA5DD62960FB6F894DEBF0FBECDBFDF91CF911F910F91FF90EF90DF90CF90BF90AF909F908F907F905F904F90089520E0FC013191CF01311105C02F5F2730C1F780E0089581E0089527E0FB0111922A95E9F7FC01C5
S284005B0023E0F695E7952A95E1F7E60FF71F8770992721E030E001C0220F8A95EAF78081822B8083CB01B4CC0895A5EAB5E0FC013D9120812323219325E0AC3AB207C1F7CCCF0895A7E0B0E0E8EAFDE20C9488F4BE016F5F7F4FCEDFCE010196E6DFCE010196BBDF182F882339F0CE0101964EDD8091BB0581FF9FDD812F2796E3E00C94A2
S284005B80A4F408950895A2E0B0E0E9ECFDE20C9489F4809175048823E9F0BE016F5F7F4F81E290E00BD4BE016E5F7F4F8DE190E005D48981823071F48A8181110BC082EC9DE290937E0480937D0486E794E00E941CC102C00E9418DF2296E2E00C94A5F48091750408950C9490EA0895A0E0B0E0ECEFFDE20C9481F4B82E7B01082F10E05C
S284005C0093E0169507959A95E1F78770C1E0D0E001C0CC0F8A95EAF7AC2E8FE38B1538F484E090E89093BF058093BE05A1D1F801E158FB4F80818C2311F1C0918704D091880485E0C82E80E8D82E2097C1F0FE01E00FF11F82818A2171F02A853B85232B29F4D092BF05C092BE0582D1EA85FB85B7018B2D19950990D881C02DE6CFCDB795
S284005C80DEB7EAE00C949DF4E82FF0E023E0F695E7952A95E1F7E158FB4F208130E0877041E050E002C0440F551F8A95E2F72423352381E0232B09F480E00895282F30E043E0369527954A95E1F7620F731F877021E030E001C0220F8A95EAF7FB019281922381E009F480E008951F93CF93DF93182FEB01803438F023E030E83093BF0527
S284005D002093BE0535D1BE01812FD8DF81112AC0BE0187E894E09AD081110BC088E0FE013296DF011D928A95E9F7BE0187E894E09DD0412F50E063E0569547956A95E1F7177021E030E001C0220F1A95EAF7C40FD51F8A81822B8A83FA01E158FB4F8081822B8083DF91CF911F9108951F93CF93DF93182FEB01803438F023E030E83093E5
S284005D80BF052093BE05F4D0BE01812F97DF882369F1212F30E073E0369527957A95E1F7177041E050E0012E01C0440F0A94EAF7942F9095C20FD31F8A8189238A83E0918704F0918804309759F0DF01A20FB31F12968C91842351F40190F081E02DF3CFF901E158FB4F808189238083DF91CF911F910895DC01ED91FC911197309721F0DC
S284005E00208131812D933C93CF01089561157105A1F0DC01ED91FC911197E617F70759F4208131812D933C930FC0808191818617970729F0FC013097C1F780E00895DB018D919C919183808381E00895DC01ED91FC91309739F0E617F70731F00190F081E02DF7CF80E0089581E008950F931F93CF93DF938C01EB01E9DF882349F080E03B
S284005E8090E89093BF058093BE055AD080E014C019821882D801ED91FC911197309719F4CD93DC9308C080819181009711F0FC01FACFD183C08381E0DF91CF911F910F910895CF93DF93FC0182819381009781F40E94FEE1C22FD32F0E94DF5044E0FC0121913191CF01C227D3274150C1F7CE010E943CF581E0809333028BE392E00E9421
S284005F00ABE1DF91CF9108958DE292E00C945051089580913302882369F08BE392E00E94DBE181E69FE290933A028093390210923302EACF08958BE392E00C94DBE1089582E090E09093C1058093C0058091BE059091BF059093C3058093C205E091BC05F091BD05309719F080EC95E01995089583E090E09093C1058093C0058091BE0557
S284005F809091BF059093C3058093C205E091BC05F091BD05309719F080EC95E019950895EF920F93FC01618372834F3740F081E090E89093BF058093BE05C2DF20C0403808F04FE7440F808181700187842BE0FA80F9808334832383CB01AC016081669504962181328174E0679F200D311D11244217530720F4DC0111971C92EECF0F9141
S284006000EF900895A0E0B0E0E8E0F0E30C9482F4EC018B01B42E0E94FEE169017A018D819E81AF81B885A7019601281B390B4A0B5B0BCA01B9012B813C8140E050E00E9410F42F3F31054105510518F42223F9F001C02FEF89819A81BC0138813695049649815A81E4E03E9F400D511D11246417750748F4FC013291432F231708F4422FE3
S284006080341B3083E9CFCD82DE82EF82F886A981BA814881842F86959D0154E0859F200D311D1124C901E0E0F0E0A817B907C0F413965C911397552359F02D913C9111972017310729F412962C9112972B15C1F0309719F02381521708F4FD011496E5CF40FD06C0309771F0838181110BC002C0309751F011830083B2828985838304C0A7
S28400610080E003C082E001C081E0CDB7DEB7E9E00C949EF4FECE08950895CF93DF93609148027091490280E090E0E1E0F0E09F01082E02C0220F331F0A94E2F74091890450918A044623572342235323452B11F16FB7F8944091890450918A04209530952423352330938A04209389046FBFFC01EE0FFF1FE452FD4FC081D181209739F4A6
S28400618086E090E89093BF058093BE05F1DEFE01199504C001968F30910549F6DF91CF9108950E94A3DF0E946CB0882371F02FB7F8948091890490918A04806190938A04809389042FBF81E0089582E00895A5DF60E070E08BE20ADD8091890490918A04892B09F4D0DC2091890430918A0481E0232B09F480E0089590CF0895FC0120817B
S284006200211105C021E02193CF010C94ABE10895FC012081213021F41192CF010C94DBE10895A5E0B0E0E7E1F1E30C9485F47C012A833B834C835D836983EADFF7011082698163872A813B814C815D812783308741875287158704872596E6E00C94A1F4089589E3E5E8F2E1DF011D928A95E9F7E6EAF2E181E080839AE09183128213820A
S284006280148215821682178295E09093B0128093B81287E08093B11247E850E066E37BE486E093E10E9447F543E150E063E27BE482E792E10E9447F543E050E060E27BE48FE692E10E9447F548E450E068ED7AE48EEB92E10E9447F58BEA9CE0E4ECF5E0DF019C011D9221503040E1F70895A4E0B0E0EDE7F1E30C9489F4BC011A821982DE
S2840063001C821B828827811521E0920769F0811522E09207B9F0892BE9F4660F771F660F771F6659764B07C07727660F771F660F771F6255774B44E050E0CE0101960E9447F50FC07727660F771F660F771F625E774BF1CF8AE090E69093BF058093BE0507DE69817A818B819C812496E2E00C94A5F477DF65CA0895A4E0B0E0E2ECF1E336
S2840063800C9485F47C018B01B2DFEE24E11422E0F20669F026E030E63093BF052093BE0569837A838B839C83E3DD7A816981F801718360832496E6E00C94A1F4A4E0B0E0E4EEF1E30C9485F48C017B0190DFE114F10479F420E030E63093BF052093BE0569837A838B839C83C3DD9C818B817A81698100270115110549F0011521E01207FD
S28400640051F4AC01C7010E9447F50CC0AC01C7010E945DF507C081E090E69093BF058093BE05A6DD2496E6E00C94A1F4A0E0B0E0ECE1F2E30C9483F48C01EB0158DF6B017C01209739F484E090E69093BF058093BE058EDD00270115110539F085E090E69093BF058093BE0583DDA701BE01C6010E945DF5CDB7DEB7E8E00C949FF4FC01C8
S28400648095A5892F887090FF09C0882379F081E021A532A52236310550F408C0882331F081E021A532A52436310508F480E08170089521E030E001C0220F8A95EAF780918E04822B80938E042FB7F8948091890490918A04806290938A04809389042FBF0895CF93DF93E0919213F09193138E179F0718F482E894E446C08E1B9F0B6CE6FB
S28400650070E00E94E9F380918D13681718F083E894E439C08CE6689FE00DF11D11248781869590E08230910559F014F00397D1F5809191138823B1F181508093911332C080919013882319F0815080939013DF01AC5ABF4FCD91DC912091951330919613CE01821B930B63E270E00E94E9F3C217D30718F484E894E406C080918E1368175F
S28400658040F085E894E49093BF058093BE05D8DC0CC0D90183E2689FA00DB11D11248C9181111C9287818E7F8783DF91CF910895CF93DF93EC0118A68EA19FA1892B39F484E494E49093BF058093BE05D1DCEEA1FFA1CE0188961995DF91CF910895EF92FF920F931F93CF93DF93A0918D13409192135091931320E030E090E09A1709F4DF
S2840066005AC0FA01E20FF31FB90164597F4FB781B0FD63C07F0194E5E90EF11CD7011D921C928230B1F010F08330F1F59091911340918F13941708F03EC09F5F90939113138214821582168290859F709087128235C01091901390918E13191760F500919413409195135091961390E09017B9F0EA014D5D5F4FBA0163527109DB016C914A
S28400668061110BC01F5F1093901341E048836896D701CD93DC93428302C09F5FE7CF4091941349130BC007C081E894E49093BF058093BE055DDC80E090E012C09085907F9087880F81608783118210828091921390919313820F931F03C09F5F9B018ECFCDB7DEB7E6E00C94A1F420919F04215020939F04BC0189EB94E0B8DB81E0D9CE1E
S2840067000F931F93CF93DF938C01C0918F04D091900480918B0490918C0480519140813F954048F4B8018FE894E0A0DBCD2B59F480E0BFDE08C083E694E49093BF058093BE0516DCEFCFDF91CF911F910F910895BC01615171098BEB94E088DB81E0A9CE20919F042F5F20939F040C94E6906F927F929F92AF92BF92CF92DF92EF92FF9279
S2840067800F931F93CF93DF931F92CDB7DEB78C017B01FB01E25AFF4F85E793E3918380833E9782E08083D80159968D919C915A973196918380839E968C919E97379680833196108231969D968C919D978095881F8827881F8083319681E08083319680839D968C919D9786FD0BC021E059968D919C915A97883F9F4F08F020E0822F01C0DD
S28400680081E0F701E35AFF4F81708083C80137DEF701ED5AFF4F6F0197012C5A3F4F3901882309F442C090903F1440914014242F30E08091431490E001972817390739F4D80199968C91499D80191124982EA92CB12CC5014E968236910538F081E594E49093BF058093BE0583DB30913F14209140148091551490915614F80163A574A517
S284006880329F600D711D1124A5014E960E945DF58AE0890DD6018C9380915514909156144496F301918380830EC0D80199968C919997885F80839B968D919C919C970897D9018D939C93F301C080D180D6012C912C7F2F7E2C93F801818D928D237F883F9F4F10F02860D6012C93F60180818F7D8083D8019D969C9192FD03C08F7B808346
S28400690022C08064F6018083D70118962C911897207F216018962C93C8012983B0DD29812F70882341F0809145148295807F822BF701808708C0809170128295807F822BD70118968C93C8019ADDF60190818823A1F0906890839091401480858C7F911106C08160808780914314818709C08260808780914014818703C09F77F6019083E7
S284006980D80193968C919397F601818396968D919C9197979383828394968D919C9195979583848398968C918683C80168DD882331F080914414D60117968C9308C08091B60491E0980F9093B604F6018783C7010996C6DE80E00F90DF91CF911F910F91FF90EF90DF90CF90BF90AF909F907F906F900895E0915314F0915414BF0180811B
S284006A009181B5CEE2E3F4E1F0930314E093021492E09093FE132091A5133091A613309300142093FF139BE090930114109206141092071491E0909308149093091410920A1428E637E330930D1420930C1490930B14908190789260906890839091AC13909333142091A8133091A91330933514209334142091AA133091AB133093371452
S284006A80209336149091A713909338149091AD139093391492E090933A149091A31390933B149091A41390933C1490913D1490931B1410929E1310929F131092A0131092A1138093971387EB93E14ACEA4E0B0E0ECE6F5E30C9487F4182FBE016F5F7F4F8AE190E06BDC2091A4043091A5044091A6045091A704A12FB0E00E9469F4098161
S284006B001A812B813C81600F711F821F931F2496E4E00C94A3F40F931F93CF93DF93EC018C0107551109FC013C970190F081E02D6FEF818192810E940588882361F0FE01329785E793E39183808323971882C8010E94D69002C0CE01C8DDDF91CF911F910F91089564E973E180E191E027DC65E973E18EE092E000DC809195139091961340
S284006B8020E030919413231748F4FC0133E2239FE00DF11D112410822F5FF3CF6DE873E18FE091E00BDC62E973E18DE092E0E4DB20918D13E0919213F091931380E0821739F097819E7F97838F5FE459FF4FF7CF9091941390938E1380938F1310929013109291136FE374E188E291E0E7DB6DE973E189E291E0E2DB6CE973E188E191E00B
S284006C00DDDB80919C13882351F068E973E18FE092E0B2DB65E574E180E192E0ADDB30919C1320919D138091981390919913329F800D911D112490939B1380939A1310929713089560EC74E082E192E095DB6FEB74E087E191E0B2DB8091BF04E091C004F091C104882349F0309739F489E294E49093BF058093BE0563C99F0146E1849FB3
S284006C80200D311D1124C90128EAE817F90718F4258B7696FACF08951F93CF93DF93EC01162F0097B1F08D819E81892B91F08FE894E0A0D81F83ED81FE81CE010796199580918F0490919004892B59F080E0F1DB08C08BE694E49093BF058093BE0548D9E6CFDF91CF911F910895A1E1B0E0EBE7F6E30C9479F48C01262E29873A874B87A7
S284006D005C870E94A7DDE091A80429853A854B855C85EE2361F130908D13C090AB04D090AC04E090AD04F090AE042B013C014C185D086E087F084D825E826F827886E0919213F0919313198A66246A94762C430169827A828B829C8246015701861A970AA80AB90A8D869E86AF86B88A0BC009EB17E3A3C0A781A0FD09C0A989AF5FA98B57
S284006D80E459FF4FB989B311F5CF40C0B085BF70B23099F7AA7FA23081F783809480A580B68081149104A104B10439F3E017F10721F34D805E806F807884481459046A047B0468F44D845E846F847888840C951CA61CB71C83829482A582B68204C0138214821582168283809480A580B68049805A806B807C8084149504A604B70408F095
S284006E00BCCF89829A82AB82BC82B7CF211046C080909E1390909F13A090A013B090A11381149104A104B104C9F12B013C014C185D086E087F08481459046A047B0488F4C80CD91CEA1CFB1CC61AD70AE80AF90AC0929E13D0929F13E092A013F092A11308C010929E1310929F131092A0131092A11380919E1390919F13A091A013B09158
S284006E80A11349805A806B807C8084159505A605B70520F489839A83AB83BC8389819A81AB81BC81281739074A075B0710F4DA01C90109EB17E39C01AD0161E088EA94E0B0D988EA94E09AD96196E2E10C9495F480919F04815080939F0480919713833009F43CC0823039F082E594E49093BF058093BE053DD8E0913E14EE2379F181E0B0
S284006F0080939713A0917112B0E011972AE030E00E9463F49B01AC018091A0049091A104A091A204B091A304280F391F4A1F5B1FA0917012B0E00E9469F49B01AC0160939E1370939F138093A0139093A113E150E0933E1461E080E090E0C7CE1092971310929E1310929F131092A0131092A1130895A4E0B0E0EFEBF7E30C9481F42FEF08
S284006F803FEFA90110E0AA24AA94B12C80918D13181708F054C0E0919213F09193138CE6189FE00DF11D1124678160FF46C07085872F8F70823009F040C0862F8A7F8230E1F583819481A581B681C090AF04D090B004E090B104F090B2048C199D09AE09BF0983839483A583B6830097A105B105E9F4872F807F846080876E7F663059F401
S284007000C5010090711202C0880F991F0A94E2F780958093421481E029833A834B835C8348DA29813A814B815C8107C082179307A407B50710F49C01AD011F5FA7CF80919E1390919F13A091A013B091A1130097A105B10551F1C090AF04D090B004E090B104F090B2048C199D09AE09BF0980939E1390939F13A093A013B093A1130097F5
S284007080A105B10559F482E029833A834B835C83B9DC29813A814B815C8107C082179307A407B50710F49C01AD012F3FEFEF3E074E075E0751F009EB17E361E088EA94E0B0D888EA94E09AD803C088EA94E0A0D82496EAE00C949DF4A0E0B0E0E2E7F8E30C9480F48C01962EC091C004D091C1048091BF046E0196E1899FC00CD11C11249C
S284007100F8018589811109C07E01F6E1EF0EF11C58018CE0A80EB11C09C085E294E432C08A3A89F06696F6E1EF0EF11CF801CC15DD0508F04AC0908521853285F70131978081843A69F7F7013E9780819813EACF89859A852817390729F748E050E0B801CE010E9450F5892BE9F6F8018385F7013B9790818913D6CF813059F0833091F09A
S28400718086E294E49093BF058093BE050E94A02F1DC0F801248535858C859D852817390709F617C0F8019489F701329780819813B9CF48E050E0BE01645F7F4FC5010E9450F5892B09F0AECF04C0958A80E090E001C0CE01CDB7DEB7EBE00C949CF4CF93DF93EC010097B1F18AEA8D8B0E94DF5048E050E0BC01CE010E9450F5892B51F5BE
S28400720082E88D8B888581508E3F20F58B858330C9F48C8981508E3FE8F42C853D854E855F85688979898A899B89A0E00E94E4F471F480E194E49093BF058093BE050E94A02F08C0813019F086EA8D8B03C01D8A81E001C080E0DF91CF910895CF93DF93EC01009761F169AB4115510551F0FA0140815181628173814AAB5BAB6CAB7DAB51
S28400728004C01AAA1BAA1CAA1DAAEFA5F8A9309749F484E594E49093BF058093BE050E94A02F0DC0CE01C1961995CE01E8D8882331F0109254141092531481E0FAD8DF91CF910895A1E0B0E0E8E6F9E30C9487F48C01FC012081318180919513909196132817390740F487E494E49093BF058093BE050E94B82FF801808191812091951341
S28400730030919613821B930B63E270E00E94E9F380918E13681750F088E494E49093BF058093BE0569830E94B82F69818091951390919613F3E26F9F800D911D11242196E4E00C94A3F4FC0120814597211107C0BC018DEB94E00E94362F81E0AAC840E050E069EA7BCFA3E0B0E0E9EBF9E30C9487F48C01675F7F4F7A836983BE016D5F01
S2840073807F4F8EE090E01AD88B81D80199965C9199974091B604882309F442C089819A81FC01E95BFF4F21E0208359962D913C915A973196318320833296585F50839B96ED91FC919C979C01255B3F4F3897D901ED93FC938FEF8183D80196968D919C9197979383828394968D919C9195979583848398968C91868381E0840F8093B6048F
S2840074004783D901ED91FC918081807888608F778083E981FA81EB5AFF4F85E793E344C089819A81FC01E95BFF4F22E0208331962DEF3FEF318320833296575F5083D8019B96ED91FC919C979C01255B3F4F3997D901ED93FC93D80159968D919C915A979283818396968D919C9197979483838394968D919C9195979683858398968C9166
S284007480878381E0840F8093B6044087D901ED91FC91808180788C608F778083E981FA81EB5AFF4F8BE895E391838083E981FA81D8019E968C919E97E15BFF4F8083E981FA81E05BFF4F80916F128083E981FA81EF5AFF4F9D968C918095881F8827881F8083E981FA81EE5AFF4F81E08083E981FA81ED5AFF4F8083E981FA81EC5AFF4F1E
S284007500808389819A812CD980E02396E4E00C94A3F4DC01ED91FC9190935414809353141092401410924114809170128093451420913F1430E081A592A5B9010E94E9F3462F6093431481A592A5B9010E94E9F3892B19F04F5F409343148FEF90E00090711202C0880F991F0A94E2F780958E7F809342148091B60491E0980F9093B60486
S284007580809344140895A0E0B0E0E9ECFAE30C9480F4EC016B01942E59010091C0041091C1048091BF04780196E1899FE00CF11C1124209761F0C017D107F0F583E294E49093BF058093BE050E94B82F35C0E801CE01801B910B66E170E00E94E9F3892B79F084E294E49093BF058093BE050E94B82F06C01D89143A39F01A3A29F0669619
S284007600CE15DF05B8F313C088859812F8CF89859A85C816D90699F748E050E0B501CE010E9450F5892B59F7143A49F703C080E090E004C0CE0102C06696CACFCDB7DEB7EBE00C949CF44F925F927F928F929F92AF92BF92CF92DF92EF92FF920F931F93CF93DF931F92CDB7DEB72C017B010E94DF506C0157018AE6A80EB11CF50100819B
S28400768011814114510431F0E114F10419F0C114D10451F484E194E49093BF058093BE050E94A02F88EA5EC058EAF20166A177A1960140A5C801598366DF8C015981009709F44FC0F20186899789892B19F5F8017384F3E07F121EC048018CE0880E911CC4010E94B8C0892BA9F4F2017286D2011D9688E0F40101900D928A95E1F783EC45
S2840077009BE3F201978B868BC20106960E94ADC080E028C0F50111830083F80183858330B1F4C8010C960E94B8C0009711F459EABCCFF8012489F20123A3FC0180819181F201928F818FB701C20111D80BC0F80184859585F201928F818FB701C20103DE01C0852F0F90DF91CF911F910F91FF90EF90DF90CF90BF90AF909F908F907F90FC
S2840077805F904F900895FF920F931F93CF93DF938C010551110920918D13C0919213D0919313F12CF216E9F08F8180FF16C0888199818017910789F4BE01C80144DF882381F040E050E0682FC80148DDCE010E94713281E00E94593204C0F394C459DF4FE1CF80918D13F81640F085E194E49093BF058093BE050E94B82FCDB7DEB7E5E06E
S2840078000C94A2F4EF92FF921F93CF93DF931F921F92CDB7DEB77B010097A1F06115710589F0FC01178A168AF701E659FF4F11821082B70108DF182F882389F0C7010E9471320DC023E134E43093BF052093BE0589839A830E94B82F89819A81E2CF812F0F900F90DF91CF911F91FF90EF900895A1E0B0E0EEE3FCE30C9485F48C01262F6F
S284007880DC01ED90FC90009709F444C0E114F10409F440C02E3C61F0822F8F7D803D41F0213D11F082E005C0F70185A587FFFACF83E0F801EB59FF4F4081518162817381D701D2964D935D936D937C93D597D1962C93833071F0D801ED91FC91808D811108C0F701178A168AB801C701ACDE883AE1F4A7014E5C5F4FD701D1966C91F80149
S28400790080819181ABDCC8010E94713281E00E9459320BC08FE494E49093BF058093BE0529830E94B82F2981B5CF2196E6E00C94A1F4CF93DF93EC0152DC882309F454C060E0CE01C9DB892BC1F5209709F43EC08D8981113BC05091BF042091C0043091C10440E0451781F0C9012A5E3F4FF90131976081683A31F424EAFC01258B0097FF
S28400798031F432C04F5FEECF8EEA8D8B2DC0209719F03D89332349F087E294E49093BF058093BE050E94A02F1AC036E1FE01DC0101900D923A95E1F706C066EACE018CDB009791F024EAFC01258B09C080E294E49093BF058093BE050E94B82FBCCF60E070E080E10E94F62DDF91CF910895CF93DF93EC010097D9F08091C0049091C10429
S284007A00C817D907A0F02091BF0436E1239F800D911D1124C817D90750F48D89843A11F08A3A71F488EA8D8BDF91CF91089581E294E49093BF058093BE050E94B82FEDCF82E294E49093BF058093BE050E94B82FE9CFCF93DF93EC01C2DB882359F064EACE013ADB009731F0C2DF60E070E080E10E94F62DDF91CF9108952091C004309110
S284007A80C104009751F0FC0176968091BF0496E1899F200D311D112408C0F901F6CF8589843A49F08A3A39F07696E217F307B8F380E090E00895CF010895CF93DF93EC01BC018DEB94E00E94362F1F8A1E8A81E00E945932DF91CF910895CF93DF93EC01BC018BEB94E00E94362F1B8A1A8A81E00E945932DF91CF910895AAE0B0E0E3E866
S284007B00FDE30C947FF41091B012BE01665F7F4F87E091E00E94DE31BE016F5F7F4F8AE190E00E94DE31C980DA80EB80FC80812F90E0A0E0B0E08C159D05AE05BF0578F0CC0CDD1CEE1CFF1CC982DA82EB82FC82BE016F5F7F4F8AE190E00E941632C12ED12C87E0C80ED11CEE24D7FCE094FE2CC092A404D092A504E092A604F092A7047D
S284007B802A8530E0A3E0B0E00E9454F49B01AC01C701B6010E94CEF309811A812B813C81600F711F821F931F6093A0047093A1048093A2049093A30481E08887BE01675F7F4F87E091E00E94DE31BE01685F7F4F84E290E00E94DE31898590E0A0E0B0E0880F991FAA1FBB1F8F3F9105A105B10529F020F08FEF90E0A0E0B0E00E9466352C
S284007C00E885EE2309F45AC0812C912C54018B019C0101501E4F2F4F3F4F800E911EA21EB31E660F771F881F991FE15081F718867501640129E0F694E794D794C7942A95D1F7D501C4019170AA27BB2741E050E060E070E0892B8A2B8B2B19F440E050E0BA01C40ED51EE61EF71E1E821D821F82BE01695F7F4F81E191E00E94DE31BE0146
S284007C806B5F7F4F88E092E00E94BC31970186010F3F11052105310529F020F00FEF10E020E030E06D817E81C12CEE24E39420E032E04F8181E994E00E94D02F2A96ECE00C949BF4882331F00E9439F58093B60410929F041092BE041092BD041092BC041092BB041092BA041092B9041092B8041092B7048AE090E0A0E0B0E080934C14EA
S284007D0090934D14A0934E14B0934F148AEF94E3909352148093511481E0809350141092A4131092AD131092A2131092A9131092A8131092A3131092A7131092AB131092AA131092A6131092A5131092AC131092971310929E1310929F131092A0131092A1138CE6EEEAF3E1DF011D928A95E9F783E2EAE1F4E1DF011D928A95E9F7809132
S284007D809D1390E0019620919C13289FA001299F500D112460E070E080919813909199130E9477F582E394E19093031480930214A4CE4F925F927F928F929F92AF92BF92CF92DF92EF92FF920F931F93CF93DF931F92CDB7DEB77C01009781F02C0127E0421A510880918F04909190048415950529F4D20112968C91893149F086E694E4AC
S284007E009093BF058093BE050E94A02FCBC080918B0490918C048115B7E09B0709F07FC00091BD041091BE040115110551F08DEB94E00E94FA2E40E050E063EAC8010EDAEFCF6CE6C62ED12C7CE6772EE2E4AE2EE4E4BE2EF3E48F2EF4E49F2E0091B9041091BA040115110509F444C0B80189EB94E00E94062F8091921390919313F80167
S284007E80E81BF90BCF01B6010E94E9F380918D13681740F0B092BF05A092BE0569830E94B82F6981E0919213F0919313679DE00DF11D1124808191812781269530E02130310561F02230310549F2232B61F4A8014B5F5F4FD80112966C9103C040E050E067EABCD9BBCF9092BF058092BE050E94B82FB4CF10E080918D131817D8F480910C
S284007F00921390919313BCE61B9F800D911D1124FC01278120FD0E9471321F5FECCF8115924041F087E694E49093BF058093BE050E94B82F10928E0410928D0481E0C2DE0E94B2350E94223682E393E090938C0480938B04D7018C91F20182878FE894E00E94FA2ED20118968D919C911997892B41F489E694E49093BF058093BE050E9457
S284007F80B82FD2011896ED91FC911997C7010396199580918F0490919004892B19F080E00E9459320F90DF91CF911F910F91FF90EF90DF90CF90BF90AF909F908F907F905F904F900895CF93DF93C0918F04D0919004209741F484E694E49093BF058093BE050E94B82F8A818A38F9F0853C09F44FC0893109F06CC080918B0490918C0442
S2840080008031914019F480E092E002C080E097E090938C0480938B0489ED9EE39E838D83CE0103960E94C3A75BC080918B0490918C04823323E0920719F08031964049F48FE394E090938C0480938B0456DD1D8202C083EA8D838FE894E00E94FA2E8B819C81892B41F48AE694E49093BF058093BE050E94B82FEB81FC81CE010596199544
S28400808080918F0490919004892B51F180E018C080918B0490918C048F339440A1F480E095E090938C0480938B0482E090E09C838B8388EA94E00E94083110929F0481E00E9459320DC063EACE010E944C3608C085E694E49093BF058093BE050E94B82FDF91CF910895AAE0B0E0E9E7F0E40C9489F4DC011396ED91FC91149721813281E4
S28400810040E450E05A834983AE01495F5F4F5C834B8341E050E05E834D836F3FBFEF7B0719F437FF15C003C02617370789F098878F837A876987BE016F5F7F4F8EE10E94F62D81E02D813E81232B19F080E001C081E02A96E2E00C94A5F4009729F480919D0490919E040895FC01808191810895CF93C82FE0E0F0E0CF01EFDFFC010097FB
S28400818039F0A381B4818C91C813F6CFCF0102C080E090E0CF910895DF92EF92FF920F931F93CF93DF938C01009741F480E394E49093BF058093BE050E94B82FC0E0D0E0A1E3EA2EA4E4FA2ECE01C7DFEC01009789F18A818111F8CF8B819C81892B31F4F092BF05E092BE050E94B82FF80160A171A1CE0178DF882339F3EB81FC81D080FC
S2840082006D2DF801878190850E9405888823E1F2F801D18AED81FE81309749F482E394E49093BF058093BE050E94A02F03C0C8011995CACFCDB7DEB7E7E00C94A0F4A1E3B0E0E5E2F1E40C947FF48C01B62EDC015C96ED90FC905D9757966D917C915897F701478181E994E00E940230882309F414C1D70111968C919FEF980F9E3F28F4C5
S28400828077DF6C01009719F408C1C12CD12CF801248985899689213009F022E02F8399878887D70111968C918A8BF8018789908D0E94BBC0FC01009799F083E08B8B708161815281438134812581968187817E8B6F8B588F498F3A8F2B8F9C8F8D8F02C082E08B8BD80157968D919C9158979D8B8C8B59968D919C915A979F8F8E8FF7017E
S284008300868188A3848195819AA389A3828193819CA38BA35B968C9190E09C012A5031093EA32DA319A6208127FD04C09C012850310906C02085237029F49C01295031093EA32DA32DA13EA1821B930BF801248D358D280F391F38A72FA3BAA684A18BA7868D8CA740A151A162A173A14DA75EA76FA778AB878D89ABD7018C9187FF48C013
S28400838018968C918370823009F042C0E0919A13F0919B13808190E09EA38DA38080912CAA24A394B12C2091A21330E08091981390919913A216B3064CF5E0919A13F0919B13EA0DFB1D408150E020919D132A9DB0012B9D700D1124680F791F880D991D0E945DF5E0919A13F0919B13EA0DFB1D20818DA19EA1820F911D9EA38DA3BFEFD8
S284008400AB1ABB0A8081880E911CCDCF98A78FA3C114D10449F0D6011596ED91FC911697CE010196199539C0F8018489813021F4CE010196B1DE31C0D70111968C918F3F41F5E12CF12CC70188DE7C01009729F1D7011396ED91FC9114978081882399F312968C918111EFCF69A17AA1C7013BDE882349F3D7011396ED91FC911497808171
S2840084808A8B1596ED91FC911697CE0101961995DACFCE0101960E9429C8C8010E94D832E196ECE00C949BF4A1E0B0E0EAE5F2E40C9481F45C01DC015C960D911C915D97F80181812FEF280F2E3F80F4298350DE7C012981009751F0D80114966D917C91159701DE882309F405C105C02E3F08F401C1E12CF12CF801808187FF04C0908528
S284008500937009F0F7C086FFF7C08C70883009F4F1C0D50157968D919C915897883FBFEF9B0708F0E7C0E114F10421F0F70122812111E0C0D5015C960D911C915D97F801208126FD02C090E0D2C02370213009F027E0F0908D13E0919213F091931330E0422F50E0B801640F751F3F15E9F0A781A530B1F4DF01AF5ABF4F0D90BC91A02DD3
S2840085808A179B0769F4DF01AC5ABF4FCD90DC90C40ED51EDB01EC90D601DC90ED1499F23F5FE459FF4FE1CF82E029830E94EF322981009741F2FC01EC5AFF4F0190F081E02DDF0158973FEA11963C9311971396BC92AE92129762E0DC01A05BBF4F6C93D50157964D915C915897DC01AF5ABF4F11965C934E9317961C9211961C9231E0A9
S28400860011963C9311963C9311961C9245E753E3129611965C934E9311973C9330813C7F32603083D8014C914C70337F342B30834C914295417040FB34F93E7D3F7B30834C9147FB442740F940FB37F930834C9130E0DC01AD5ABF4F7D0144FF0DC0D5015C964D915C915D97420F531FDA012C912183F701608337C048E04C93D8011696AE
S2840086804C911697418312964D915C9113975383428314964D915C9115975583448311964C914683D5015C964D915C915D97420F531FDA012C912783D8012C9127FF13C018962C91237031F41086F70120812F5F208309C0D7012C912D5F2C93D80118962C912370208709960E94B03391E081E08927A1C190E001C091E0F801808187FF73
S28400870092C18085837009F48EC1D5015C960D911C915D975B968C91F801F18420919C13222309F487C196EFE92EE80E80919713813009F456C030F0843008F06BC180E494E46AC1D084B1E0DB1274C12F1508F471C180919D138E1508F46CC190E00196289FA001299F500D112460E070E080919813909199130E9477F58FEA80933D140D
S284008780D0929713F092A213F5018789908D9093A6138093A513D80111968C9111978093A71312968D919C9113979093A9138093A81314968D919C9115979093AB138093AA1316968C9116978093AC1317968C918093AD138091701280933E141092A313F12CF8018085982F9370923011F0F11021C18C7F09F01EC18091A2138F1508F4B0
S28400880019C12091A5133091A613D50157968D919C9158972817390709F00CC19091A713F8018181981306C12091A8133091A913828193812817390709F0FCC02091AA133091AB13848195812817390709F0F2C09091AC1386819813EDC09091AD1387819813E8C02091A313409171120F2D10E0822F90E0840F911D081719070CF0DAC0AD
S2840088808F2D642F0E94DDF3D92EF21668F48F2D891B8093A31321E030E001C0220F4A95EAF721952093A41320919D1380919813909199134E2D50E0D5015C966D917C915D97665F7F4FF29E800D911D11240E945DF5E0919A13F0919B13E00FF11FE0827091A3132091A2137F1111C090917112822F8F19981708F4892F41E050E0082E45
S28400890001C0440F0A94EAF741954093A41341E050E00D2C01C0440F0A94EAF76091A413642B6093A4136F3F79F4FF24FA94F70E822F90E04091711250E0871B9109481759070CF4CA01F80E8F2D90E030E0215031098217930751F46F3F21F483E00E94023563C082E00E94023564C0A0917112B0E011979D01270F311D8217930711F09D
S2840089806F3F09F582E00E9402358091A4138F3F09F050C0809171129091A313980F9093A3132091A21321502F19821708F4282F81E090E0022E01C0880F0A94EAF781958093A41337C02AE030E00E9463F49B01AC018091A0049091A104A091A204B091A304280F391F4A1F5B1FA0917012B0E00E9469F49B01AC0160939E1370939F135B
S284008A008093A0139093A11361E080E090E00E94753610C083E594E49093BF058093BE050E94B82F07C0992329F06FEAC50107DC80E001C081E02196EAE00C949DF4A4E3B0E0E5E2F5E40C9479F4C0908B04D0908C0420E1C21621E0D20609F46CC12EE4222E24E4322EAA24A394B12C89EB94E00E94FA2E7C01009709F45DC100919213FC
S284008A8010919313C701801B910B6CE670E00E94E9F380918D13681748F089E494E49093BF058093BE050E94A02F45C13CE6639F000D111D1124D80117968C91B0E1CB16B6E0DB0621F0C114E5E0DE0699F58E7F843019F5C8018C5A9F4F0E9462394C01DC0111966C91119712968D919C911397892B51F4EAE4F4E4F093BF05E093BE0575
S284008B006CAB0E94B82F6CA9D70112968C91811104C0F4018281938192DBA7014B5F5F4F63EAD8018D919C910E942E39C7010E9471329CCF8695482E512CB1E04B165104B1F054F4452809F0EFC0D70112966C91C8010E94383C8ACFF2E04F16510409F4BCC023E04216510409F47CC0DDC0F80180858F70813009F079CF80809180D70172
S284008B8019968C910E9466359B01AC01A0917012F801808582958F70A81BC20102C0880F991FAA95E2F7DC010E9473F42B013C01D70112966C91611115C043825482658276820E9439F59170B301A201480F591F611D711DD80113964D935D936D937C9316972EC06E3C51F0603F41F0603D31F0613D89F4F40195A597FF0DC0A7014B5FA4
S284008C005F4FC4010E942E39C7010E94713281E00E94593290C0D80113964D925D926D927C9216970E9439F59170B301A201480F591F611D711DF8014383548365837683D80118968C911897807F826018968C93189713962D913D914D915C91169760E0C80104C2F80180858F70813009F0FECE2091401430E08091431490E001972817A1
S284008C80390709F4B5C1E091711270914214272F30E080E090E0682F8E1708F0A9C10196A901062E02C0559547950A94E2F740FFF2CFC501062E01C0880F0A94EAF7809587238093421480914114860F8093401486E494E10E94ABE1C9CEC8018C5A9F4F0E9462398C01DC0111966C91119712968D919C911397892B51F4EDE4F4E4F093D8
S284008D00BF05E093BE056CAB0E94B82F6CA9D80112968D919C91139792DAC7010E94713281E00E945932A2CE3092BF052092BE050E94B82F9BCE1BAA1AAAA8EA4A2EA3E35A2EBFEA2B2E13E0312EAA24A394B12C66246A94712C95E4892E94E4992E8BEB94E00E94FA2E8C01C0908B04D0908C04009751F1F80182899389892B09F079C10A
S284008D80048CF58DE02D80818370813009F071C18281853009F46DC1D80157968D919C9158970E94BBC0892B09F063C122E0F80126838789908D90878783538A428AC80102960E94ADC0CBCFC1FE11C050E5C52E54E4D52E62E0462E72E1A72E74E4B72EE8E05E2EF3EA8F2EF9E39F2E3BC00091BD041091BE040115110509F458C0B801BA
S284008E008DEB94E00E94062F40E050E063EAC8010E942E39ECCF808D833081F57801FBE1EF0EF11CC7010E94B8C0892B39F5D8011D96F701852D01900D928A95E1F7D80158968C9158971A968C931A9757969C928E925697C80106960E94ADC08DEB94E00E94FA2E0091BD041091BE0401151105F1F0F80186899789892B69F28091531434
S284008E8090915414892B09F4BEC2C8010E943F32882309F4B8C2C8010E943F32882309F4B2C2F8010081118101151105A1F780918B0490918C048115B5E09B0721F08031F6E09F0769F5F12C0EC02CE6F29E80011124E0919213F0919313E00FF11F8781833031F0F39480918D13F81670F320C080858F70843011F08230A1F740E050E0FC
S284008F0063EA808191810E942E398091921390919313800F911F805A9F4F0E947132E2CF8F33944029F4F12C80918D13F81648F080918B0490918C048115954009F080C351C000919213109193138CE6F89E000D111D1124D80117968C91179780FF40C018969C911897292F2F702430C9F5282F2A7F2230A9F5907F79F1916090511896F8
S284008F809C938E7F823071F4C80109960E94B033F801238134814581568160E0C8010E9475361EC08630E1F4809142148E7F80934214809141148093401480914514815080934514E0915314F0915414BF01808191810E94B73304C067EAC8010E94383CF394A2CF80919F04882309F4AAC228C3F70181850E9466359B01AC01A091701237
S284009000F801808582958F70A81BC50102C0880F991FAA95E2F7DC010E9473F42B013C0100915314109154140E9439F59170B301A201480F591F611D711DD80113964D935D936D937C931697E0915314F09154148085807F826080878091531490915414FC01238134814581568160E00E947536FDCCD8015C96ED90FC905D97BFE3CB1681
S284009080B4E0DB0669F0D7018C918370813041F0F80185A1811104C0C8010E94D832A4C1D7014C91642F607446FF11C05091901320918D1330E08091911390E0850F911D821793074CF780918E13581728F7242F2C70243009F3662331F0842F83708230D9F243FDD9CF45FDD7CFF801D488F1E0DF1671F032E0D312CFCF4370842F90E08D
S284009100009721F0029709F47AC0C6CF2C3031F0C801CAD9882309F467C1BECFD80157966D917C915897F701408581E994E00E940230882309F4B0CFD8015B968C91893008F4AACFB1E0BF83F7018181928199878887D80157968D919C9158970E94BBC0FC01009791F03B8A708161815281438134812581968187817E8B6F8B588F498F80
S2840091803A8F2B8F9C8F8D8F01C0DB8AF8018789908D9D8B8C8B818D928D9F8F8E8FD70117968C91179788A315968D919C9116979AA389A313968D919C9114979CA38BA3838D90E009979EA38DA3848D958D099698A78FA319A62AA684A18BA7868D8CA780A191A1A2A1B3A18DA79EA7AFA7B8AB878D89ABCE0101960E94CC404DCF423004
S28400920031F09092BF058092BE050E94B82FC0909213D090931380918D13F6012CE6829FE00DF11D1124CF01C816D90608F034CFD60117966C91179760FFD2C018962C9118972F70223009F0CBC0F601EC5AFF4F0190F081E02D2D913C91D80157964D915C915897D90159962D913C915A974217530709F0B5C0D70117963C911797278194
S2840092803213AEC014964D915C911597248135814217530709F0A4C012964D915C911397228133814217530709F09AC011963C9111972681321394C016963C91218132138FC06E7F623031F4F6018085807F836080873FC0663009F083C0D70119969C911997809141149813D7CE60917112262F30E0C501062E01C0880F0A94EAF7819571
S2840093001A969C911A97982B1A969C931A97F6018085807F836080871A96EC91EF3F99F54091431450E070914114E70FCA01871B9109281739070CF4C9018E0F8093401490E0415051098417950741F4C6010E94893A60E0C6010E94383C9ECE760F70934114809170128093451470934014930102C0220F331F6A95E2F7B90160956E7F45
S2840093806093421423C0E095E093421480E090E02E2F30E0782F8617C8F40196A901072E02C0559547950A94E2F740FFF3CFC501072E01C0880F0A94EAF780958E238093421480914114870F80934014E0915314F0915414BF01808191810E94B7335CCE3CE6C30ED11C20CFD8015E968C915E978AAB5F968C918BABBE016E5C7F4F8BE3AD
S2840094000E94F62DACCCC8010E943F32882361F08091551490915614892B09F4BDC0D8019D968C9182FFB8C0F80181A592A58536910518F085A583FFB1C0D80198963C90332031F0832D0E94B840892B09F448C0F80185A5208D382F347082FF0AC0223031F4818D928D883F9F4FD0F502C02130B9F18EEF820F823038F4D80193968C915B
S284009480815F8E3068F18CC021118AC0332309F487C0F80166A077A092D67C01009719F080E090E00CC0B092BF05A092BE050E94A02F76C0DC011B962C91213089F09701432DB3010E94C33A0097A1F769C0813008F475C0823009F49AC0833009F48AC026EAE12CF12C612C712CB8018DEB94E02CAB0E94062F2CA921111CC0E114F10404
S28400950031F4D092BF05C092BE050E94B82FF30111830083C8010E943F32882319F0C3010E94893AB301C801F7011995282F882309F498CC40E050E0622FC8010E942E3991CC00918F0410919004F8018281853C41F08DE694E49093BF058093BE050E94B82FD80113968D919C9114978D7F14969C938E931397892B09F062C080E00E9432
S284009580623E80E196E090938C0480938B0460E0C8010E944C3654C02AEAA3CF20EAA1CFD80158968C91813009F091CF80E00E94EF323C0133EBE32E39E3F32E0DC0C8010E943F32882371F083E00E94EF323C0142E0E42E4CE3F42E6114710409F467CC20E083CFF80185A582FF02C081E0EDCF80E0EBCFC8014B960E94B8C00097F1F0BD
S284009600DC018D919C91F801928F818F408EC8010E943F32882311F083E008C0D8019D968C9182FF02C081E001C080E00E94EF323C0127EBE22E23E3F22ECECF29EA51CFE496E2E10C9495F4AFE1B0E0EAE2FBE40C9486F4009749F485E495E49093BF058093BE050E94A02F82C0FC012081233009F07DC0218132813A83298328E03396E5
S284009680DE01139601900D922A95E1F7FC0123852B87248535853D872C8728E03E96DE011E9601900D922A95E1F7FC01218D2D8F238D2E8F0789108DF688F6E0FF1508F056C0F8018081982F9370933009F04FC0807E09F04CC08181811149C0BE01615E7F4F85E190E00E94DE31F801208126952695277030E08F8D90E028173907B9F5C6
S2840097008281982F9370933091F5982F907F79F58C708C3091F481E08B87F8E0FF1538F5F801838194819F878E876FEF0E9405888823E9F0F80129E003C0F801329727E085819681998F888F878190859F8B8E8BF21AFA8E020F111D1C8F0B8FE0919B04F0919C04309719F0CE01019619956F96E5E00C94A2F480E191E090938C04809354
S2840097808B041092900410928F0410928E0410928D0410929E0410929D040E94B2350C94E2A7CF93DF93EC016AE472E085E20E94752E6AE472E088E30E94752E209749F480E694E49093BF058093BE050E94A02F05C089E18A83CE010E948033DF91CF910895009741F481E694E49093BF058093BE050C94A02F2AE8FC0122830C948033C2
S284009800009741F482E694E49093BF058093BE050C94A02F25ECFC0122830C948033CF9330919413809195139091961320E0231751F08396FC01B3974081442311F081E029C02F5FF4CFC0E080918D13C817E0F40E94F02D9CE6C99F900111244091921350919313FA01E20FF31F882341F0878180FF08C080858F70823021F0E0CF878102
S28400988080FDDDCFCF5FE0CF81E090919713911101C080E0CF9108951F93CF93DF93EB01853239F41881BBDF91E09827912398831FC08833E9F4388140918D13E0919213F091931380E0841771F0278120FF07C090859F70923019F42A7F223031F08F5FE459FF4FF0CF80E001C081E0832B8883DF91CF911F910895FC01808184FD0C9463
S28400990022360895A2E0B0E0E8E8FCE40C9489F4E0918D04F0918E042F2F30E09E2F9F5F983008F090E0692F70E0A901092E02C0569547950A94E2F740FF26C090938D0481E090E0062E01C0880F0A94EAF78F2780938E04660F771F6354744B42E050E0CE0101960E9447F589819A81892B41F480E094E49093BF058093BE050E94B82F74
S284009980E981FA81199504C0E913C9CFE0938D0480918E04882361F02FB7F8948091890490918A04806290938A04809389042FBF2296E2E00C94A5F48091B912853091F028F4882349F0823069F004C0843141F0863141F080E008958091B2128B3010F488E0089582E00895833014F083E01BC096E0980F923010F48BEF15C098E0980FB7
S284009A00923010F489EF0FC09AE0980F923010F487EF09C09EE0980F943010F484EF03C0823F0CF48FEE8093B7120895C5DF282F220F220F280F30E0A90160E8869F400D511D1124CA0108958091B9128530E9F028F4882349F0823079F004C0843189F0863189F080E008958091B212882349F08B3058F489E108958091B212811105C02A
S284009A8002C082E3089588E2089580E10895CF93DF93EC01D9DFE82F9E01A0ECB3E00E9454F49B01AC01AE2FB0E00E9469F428EE33E040E050E00E9410F4CA01B901DF91CF910895CF93DF93B1DFEC01BDDF282F2C9FC0012D9F900D1124BC0180E090E028EE33E040E050E00E9410F42F5F2093B012DF91CF910895CF93DF938BE08093BE
S284009B00B21280E098EFAFEFB7E08093B3129093B412A093B512B093B61267EB72E183E090E00E94DE318091B7125EDF67EB72E183E090E00E9416321092B91277DF9093BB128093BA1238DF94E0899F800D11248093BC1231DF8093BD1286E390E0A0E0B0E08093851290938612A0938712B09388121092891210928A1281E080938B123B
S284009B8010928D1210928C1210928E120E9439F580938F12E0E9F2E18FEF80838183828383838483858386838783CFEFDFEFD0939912C09398120E9439F580939A1285E080939B1284E080939C1283E080939D1280939E12D093A012C0939F1280E28093A1121092A2121092A312D093A512C093A4121092AE121092AF1264DFDF91CF918A
S284009C000895A4E0B0E0E7E0FEE40C9489F4DC014C9150E0CA01805491098534910508F0DFC0865A9D4DFC010C944EF411968C9180938A1208C011968D919C91129790938D1280938C1280E015C111968C91853308F00FC180938E12F6CF11968C9180938F12F1CF11968C9111978093901212968C9112978093911213968C91139780937B
S284009C80921214968C9114978093931215968C9115978093941216968C9116978093951217968C9117978093961218968C9180939712C9CF11968D919C9112979093991280939812C0CF11968C9180939A12BBCF11968C91863008F0CCC080939C12B3CF11968C9190919B12981708F4C2C080939E12A9CF11968D919C9112979093A01275
S284009D0080939F12A0CF11968C918093A2129BCF11968D919C9112979093A5128093A41292CF11968D919C911297B1DE69837A838B839C83BE016F5F7F4F03C0BD016F5F7F4F82E090E079C011967C91119712966C91129713965C91139714964C91149715963C91159716962C91169717969C91179718968C917093A6126093A712509361
S284009D80A8124093A9123093AA122093AB129093AC128093AD1257CF11968C918093891252CF11968C91883008F063C080939D124ACF11968C918093A11245CF11968C9180939B1240CF11968C91803108F051C08093B11238CF11968C918093AF1233CF4830510508F043C041565D4DFA010C944EF48BEF3FC011962C918091B312909168
S284009E00B412A091B512B091B612022E04C0B695A795979587950A94D2F780FF2AC02093B21223C011968C9190E2980F903408F5DBDD67EB72E183E090E00E94163203CF11968C918430A8F48093B812FCCE11968C91853041F018F4833058F404C0843111F0863131F48093B9122CDEECCE84EF01C088EE2496E2E00C94A5F4A4E0B0E0C4
S284009E80E4E4FFE40C947BF460909C1260919B1270E0E0919E12F0E0262D30E0CB018E1B9F0B281739070CF4C901AA2797FDA095BA2F0097A105B10521F481E090E0A0E0B0E0712CC12CD12C76018C019D01015011092109310942E0442E512C872C912CA12CB12C081519052A053B05B0F0AF01470D511D41505109520102C0AA0CBB1C83
S284009F004A95E2F74501AA2497FCA094BA2CC80CD91CEA1CFB1C7394E1CF262D30E040E050E0281B390B4A0B5B0B61507109A2E0B0E002C0AA0FBB1F6A95E2F711970E9473F49B01AC012C0D3D1D4E1D5F1DA4E1B0E00E9469F49B01AC0169833A834B835C8364DD29813A814B815C81280F391F411D511D29833A834B835C8365DDA82F67
S284009F80B0E029813A814B815C810E9469F428EE33E040E050E00E9410F4CA01B9012496E0E10C9497F450DDE82F2091A11230E0A0ECB3E00E9454F49B01AC01AE2FB0E00E9469F428EE33E040E050E00E9410F4CA01B9010895A4E0B0E0E1EFFFE40C9483F48C01FC01408150E0FA01E054F109E534F10508F0B2C0E955FD4D0C944EF459
S28400A00080918A12F801818380E0D5C080918C1290918D12C3C080918E12F4CF80918F12F1CF70919012609191125091921240919312309194122091951290919612809197125BC08091981290919912A7C080919A12D8CF80919C12D5CF80919E12D2CF80919F129091A01299C08091A212CACF8091A4129091A51291C0BE016F5F7F4F27
S28400A08082E090E00E94DE31C980DA80EB80FC80C114D104E104F10491F0D6DC282F30E0A0ECB3E00E9454F428EE33E040E050E00E9410F4C701B6010E9410F402C024EF31E0F801328321839FCFBC016F5F7F4F82E090E00E94DE3197CF7091A6126091A7125091A8124091A9123091AA122091AB129091AC128091AD12F8017183628305
S28400A1005383448335832683978380877DCF8091891278CF80919D1275CF8091A11272CFFC01118271CF8091851290918612A0918712B09188122BC080919B1263CF8091B112F801818336C08091AF125BCF2BDFF801618372838383948356CF4830510548F5FA01E451FD4D0C944EF48091B21249CF8091B71246CF8091B81243CF8091A0
S28400A180B3129091B412A091B512B091B612F80181839283A383B48337CF48DCF8019283818332CF09DCF4E08F9F800D11242ACF03DC28CF84EF2496E8E00C949FF486EA92E1089548E050E0BC0186EA92E10E9450F521E0892B09F020E0822F0895CF92DF92EF92FF92CF936B017C01E5DBC82F2BDC2C2F30E0A82FB0E00E9454F49B01C1
S28400A200AC01C701B6010E94CEF328EE33E040E050E00E9410F4CA01B901CF91FF90EF90DF90CF9008952FB7F8948091070590910805946090930805809307053FB7F8948091C20481110FC04FB7F8948091890490918A04816090938A04809389044FBF81E08093C2043FBF2FBF0895BC0184EC94E00E94362F8091C304811101C0D3CFBC
S28400A2800895FC011282F2CF21E0FC012283EECF22E0FC012283EACF23E0FC012283E6CF25E0FC0122831186108622E02783DECFA1E0B0E0EEE5F1E50C9488F41092C5041092C4045AD11FB7F894CE0101960E94DDD6811104C082E08093C30402C01092C30410920805109207051FBF2196E3E00C94A4F4A2E0B0E0E0E8F1E50C9487F4BE
S28400A3001FB7F8941092C204CE0102960E94DDD6882339F08091C3048230C9F41092C30416C081E090E00A8002C0880F991F0A94E2F780959095209107053091080528233923309308052093070580E001C081E01FBF8111BAC081E08093C3048A818A3029F50091C4041091C504209156023091570241E050E00115110539F4CE0101969A
S28400A3800E94DDD681114BC033C0CA01F801028002C0880F991F0A94E2F782239323892B09F065C0F80100811181E5CF90E08C30910520F7FC01EC50FD4D0C944EF4B0D214C0B7D212C02AD410C0C5D30EC05ED30CC00E9462D409C00E94E6D306C03DD104C00E9431D401C0A5D0811127C0C6CF2FB7F8948091C20481110FC03FB7F894ED
S28400A4008091890490918A04816090938A04809389043FBF81E08093C2042FBF56C08091CD04811152C08091C4049091C504892B11F0F9DE4AC01092C30447C0813009F044C04FB7F89421E030E00A8002C0220F331F0A94E2F78091070590910805822B932B90930805809307054FBF2EC0B80184EC94E00E94062FF801428150E049305C
S28400A480510508F07BCFFA01E050FD4DC8010C944EF497D393E002C040D394E09A83A5CF87D295E0FBCF0E944ED496E0F7CF0E94C3D392E0F3CFB5D098E0F0CF0E9411D499E0ECCF06D09BE0E9CF2296E4E00C94A3F4CF93DF93EC0118868B819C819C01215031092F333105C8F4805C9E4F9C838B838A81873031F0883081F4CE010E9416
S28400A5009EB003C0CE010E9484B0882339F0813061F4D0930605C093050507C01886EE81FF81CE010896199580E08093C604DF91CF910895CF93DF93C0910505D09106058A81873031F0883041F4CE010E949EB007C0CE010E9484B003C081E0888702C0811106C0EE81FF81CE010896199580E08093C604DF91CF910895AEE0B0E0E3ECDE
S28400A580F2E50C9487F40E94B8B082E088871E861D861A86198681E08F83CE0101960E94EEB38B859C850E943CF573D00E9476D489D2F0D26ED30E940CD468D00E944BD48EE4898380919C128A83CE0101960E94B3B48FE4898380919E128A83CE0101960E94B3B489E5898380919D128A83CE0101960E94B3B480E589830FEF1FEF1B83F5
S28400A6000A83CE0101960E94B3B483E589831B830A83CE0101960E94B3B42E96E4E00C94A3F41F93CF93DF93EC010E94EEB3182F882339F0813051F4D0930605C093050505C0EC85FD85CE01089619951093C704812FDF91CF911F9108951F93CF93DF93C0910505D0910605CE010E94EEB3182F811105C0EC85FD85CE01089619951093BE
S28400A680C704812FDF91CF911F9108951092C7040895A2E0B0E0EFE4F3E50C9489F461E777E180E092E00E94BC31BE016F5F7F4F80E091E00E94DE3129813A8180917117909172179093761780937517909378178093771790937A1780937917280F391F30937C1720937B1710927417109273176DE777E183E292E00E94BC31BE016F5F38
S28400A7007F4F8EE291E00E94DE3129813A8180917D1790917E17909382178093811790938417809383179093861780938517280F391F30938817209387171092801710927F172296E2E00C94A5F49CE0899FF0011124EF58F84E86819781019608959CE0899FF0011124EF58F84E4FB7F894A681B7818C9190E001968A0F9B1F9783868381
S28400A7801C9226813781808591852817390751F484819581918780878081918195838483978386834FBF08959CE0899FF0011124EF58F84EA681B78182819381A817B90721F081E09C91911101C080E0089581E0EBDF8823F9F08091070590910805816090930805809307052FB7F8948091C20481110FC03FB7F8948091890490918A0430
S28400A800816090938A04809389043FBF81E08093C2042FBF80E0C8DF8823F9F08091070590910805826090930805809307052FB7F8948091C20481110FC03FB7F8948091890490918A04816090938A04809389043FBF81E08093C2042FBF0895A6E3B0E0E4E3F4E50C9488F4182F6FDFFC01208130E0DC01A20FB31F12968C912F5F3F4F9D
S28400A8802E0F3F1FD9016C91813220F4811103C081E001C080E26295669566956370689FB00111248FEF869FA001879F500D1124CA0160E670E00E94E9F3D9016C93BF01CE0101960E94C5D4882319F18A81982F977029F4807619F48B818C70B1F020914802309149022E7F3093490220934802CE010196BED420914802309149022160E9
S28400A900309349022093480204C08091B212898FE6CF812F24DF80E0E696E3E00C94A4F481E042DF882311F081E098DF50DF80E0089580E039DF882311F080E08FDF47DF80E00895A9E0B0E0E8EAF4E50C9486F48C018091CA0465E0813029F4C4D0F82E811121C01EC080E0BED0F82E81111BC0F8018381898388E03496DE011296019054
S28400A9800D928A95E1F7CE0101960E94B3B4F82E8091CA04823039F48091C904B3D065E0A2D01092CA048F2D2996E5E00C94A2F4A9E0B0E0EEEDF4E50C9487F48C01DC0113968C91833511F148F4853028F4823088F4811124C01AC092EB09C08438B1F028F4893579F08F36D1F410C090E1980F9330A8F4813F41F4F80194812091C804D7
S28400AA00921339C091E00CC08935E1F390918D179093C904963119F492E09093CA0490E02091CA04211111C0911113C0898388E0F8013496DE01129601900D928A95E1F7CE0101960E94B3B402C0C8017BDF811108C0D8011C96ED91FC911D97199580E004C010930605009305058093CB042996E4E00C94A3F49093C80490918D179093A4
S28400AA80C904963109F0BECF91E0C7CFA1E0B0E0ECE4F5E50C9487F40091050510910605C80150DF811108C0D8011C96ED91FC911D978983199589818093CB042196E4E00C94A3F41092CB041092CA041092C8040895882331F0813011F083E0089586E1089589E1089560935714F3DF0C94B8B5882331F0813011F088E0089586E10895E6
S28400AB0089E108958850823130F4E82FF0E0E650FD4F8081089588E008951F93CF93DF93EC0110918D178B81E3DF181729F064E08B81D9DF811105C0EC81FD81199580E004C0D0930605C09305058093CC04DF91CF911F910895A1E0B0E0E1EBF5E50C9487F4009105051091060564E0D80113968C91B9DF811108C0D8011496ED91FC91DD
S28400AB8015978983199589818093CC042196E4E00C94A3F41092CC040895CF93DF93EC0163E080E0A0DF811109C082E08093CD04CE0103960E9407D60E9416B6DF91CF910895CF93DF93EC0189AD83DF80938B17D0930605C093050580919D12809358140E9439F590935A148093591480918D17893151F482E08093CD04CE0103960E94F9
S28400AC0007D60E9416B605C081E08093CD04CE01C4DF8093CE04DF91CF910895A2E0B0E0E4E1F6E50C9487F400910505109106058091CD04813021F4C801AFDF811123C00E944FB00E9426B01A8219820E94E2B3D801DC968C93DC97DA96ED91FC91DB97C801CC96199580919D1290E020915814821B91099A838983BE016F5F7F4F8DE38C
S28400AC800E94F62D80E08093CE042296E4E00C94A3F41092CE041092CD040895A9E0B0E0E4E5F6E50C9489F483E08983CE01019692D98A81833021F40E94E2B3813029F0809158148150809358140E94C6DF63E080E009DF81110DC0809105059091060522E02093CD0403960E9407D60E9416B60EC081E08093CE048093CD0480910705BA
S28400AD0090910805886090930805809307052996E2E00C94A5F42FB7F8948091890490918A04846090938A04809389042FBF0895BC018AE097E10E94362F8091F91681110CC02FB7F8948091890490918A04846090938A04809389042FBF0895CF93DF93DC0112964C9150E0FA013197E031F10508F053C0E75FFC4D0C944EF4DC011C9652
S28400AD80ED91FC911D970E963DC0DC011B96ED91FC911C970D9636C0DC011796ED91FC91189709962FC0DC015196ED91FC915297439628C0DC015396ED91FC9154974596199543C0DC011996ED91FC911A970B9619C0DC011E96ED91FC911F97409612C0FC01C08DC470D0E0018CF28DE02D4B961995CD2B51F511C0DC011496ED91FC9143
S28400AE0015970696199509C080916A178E7F03C080916A178D7F80936A171092F91620916A1780910A1790910B17892B11F4222361F02FB7F8948091890490918A04846090938A04809389042FBFDF91CF910895CF93DF938091F916882319F0833009F06AC080916A17882389F080FF09C08FE08093F9160E94B16561EF0E9409645BC045
S28400AE8080E18093F9160E9483DA55C080915802882309F450C0C0910A17D0910B17209709F449C08AE097E10E94FA2E8A818093F916D093FC16C093FB168A8190E0FC013197EE30F10518F5E75EFC4D0C944EF40E94F8611AC00E94D26117C05CD415C0C7D713C0AAD411C00E94E3D80EC00E942AD90BC00E94C76308C0EED006C052D340
S28400AF0004C00E948FDB01C01ED4811114C01092F91680910A1790910B17892B61F02FB7F8948091890490918A04846090938A04809389042FBFDF91CF91089527E0FC012283F6CE28E0FC012283F2CE2BE0FC012283EECE22E0FC012283EACECF93DF93EC018B81882331F183E08A838093F91610920B1710920A1710926A1769E572E057
S28400AF8085E20E94752EBE018AE097E10E94362F8FD98DEF96E10E94DBE12FB7F8948091890490918A04846090938A04809389042FBF04C084E08A83CE01BADEDF91CF9108952AE0FC012283B3CE25E0FC012283AFCE21E0FC012283ABCE26E0FC012283A7CE2CE0FC012283A3CE2DE0FC0122839FCE2091F916233011F00C9484A3089517
S28400B0002091F916233011F00C9429AC08952091F916233011F00C94A69F08952091F916233011F00C9479AF08952091F916233011F00C9471A708952091F916233011F00C9451AF089580916A17816080936A178091F916811101C05ECE089580916A17826080936A178091F916811101C053CE08952091F916211104C021E12093F916E6
S28400B0801DC3089580916A17811105C00E941C6791E0982701C091E0892F08951F93CF93DF93EB011881EEDF91E0982791239883DF91CF911F910895CF93DF93C091FB16D091FC16FC0180810E94F2DA8CA3CE0145DEDF91CF9108951F93CF93DF93C091FB16D091FC1680919F129091A012998B888B13E01A8B63D8DE01539628E0FC01AB
S28400B10001900D922A95E1F71B8F8B818C8F8C818D8F8D818E8F8E818F8F8F8188A3888589A389858AA38A858BA38D85811105C01CA2CE0113DE80E077C08BE08093191780919A1291E0980F90939A1280931C1780911A17807820911B172C6083628F7780931A172C7C20931B178FEF9FEF90931E1780931D17EB817C816D815E814F8199
S28400B180388599858A85E0931F1770932017609321175093221740932317309324179093251780932617206C20931B1780919F129091A012909328178093271700D828E0FC01A9E2B7E101900D922A95E1F780919F129091A01290933217809331178091A4129091A51290933417809333178B859C8590933717809336178091B21280934C
S28400B20035178CE598E590935117809350178091A212882311F081E001C082E080934F1786E197E12ED881E0DF91CF911F910895A8E0B0E0EEE1F9E50C9489F4FC018281807C81F08089898381898A8382898B8383898C8384898D8385898E8386898F8387898887CE010196E0DE2896E2E00C94A5F4EF92FF920F931F93CF93DF93EC018A
S28400B2808A81807C8038C1F4AE014C5C5F4FBE016D5C7F4F888999890E94C0D9811144C0488150E0FA013197EB30F10508F03CC0E95DFC4D0C944EF4803C91F7288939894A895B896C897D897E0184E3E80EF11C8E010D5C1F4F8E899F890E94FED9DECFCE018DD621C0CE01ADD01EC0CE010E94BAD81AC0CE010E943AD916C08DA980FD00
S28400B30005C0CE010E94BF6581119DDECE0173D00BC0CE018DDF08C08091AF12882321F09DDE02C0CE01A7D7CDB7DEB7E6E00C94A1F481E08093AF1208951092AF12089583E08093FA16109266176DEA79E586E197E10C94F063F4CF08958091FB169091FC16FCDC1092FA160895A3E0B0E0EBEBF9E50C9489F481E18B83CE010196EEDCF7
S28400B3802396E2E00C94A5F4CF93DF93C091FB16D091FC16FC018081833028F4813048F00E94F2DA03C0833001F58BEE888BC8DF1CC08BEE888B81E0809307178BEA99E590930917809308170E943E4F6093031770930417809305179093061782E08093FA168DEF96E10E94ABE1DF91CF9108951092FA160895AEE0B0E0E1E0FAE50C943D
S28400B40089F4FC01228122952695269523702983268537853B832A8328E07096DE01149601900D922A95E1F7FC0123A92C8723812D8784A98E87CE010196FEDD2E96E2E00C94A5F4ACE1B0E0E8E2FAE50C947DF4FC01428142954695469543704983268537853B832A8328E07096DE01149601900D922A95E1F7FC01628066946694F62D2F
S28400B480F3706F2EFC87FC01248135813E872D8728E03696DE011F9601900D922A95E1F7FC0172A87F8A20A931A9398F288F23A92A8F23812B8F84A98C8F8091FA16882309F44CC08090FB169090FC168EEF840F823008F063C0F4018381481320C0423029F42C813D818681978127C0433009F055C02C813D814E815F8168857985F401A3
S28400B500A680B780C084D184E284F384048515858A859B850E94DBF409F040C023C0823091F0833021F0811139C0423051F42C813D8180919812909199122817390771F511C0433059F548E050E060E972E1CE0104960E9450F5892B29F020C0CE0101964FDD1CC0F2E06F1209C02F8538898091A4129091A5122817390781F4772029F07F
S28400B580CE0101963DDDF401108A8091FA16823029F48DEF96E10E94DBE1D2DE6C96EEE00C9499F4CF93E091FB16F091FC168381882349F08250823030F088EE808BCF01CDDB80E079C087E08093191780919A1291E0980F90939A1280931C1720911A17207E2360206220931A178481958190931E1780931D1793819370990F990F809185
S28400B6001B17837F892B80931B178381811102C02F7B01C0206420931A1780911A178F7780931A1780911B178C7C80931B1788E03696AFE1B7E101900D928A95E1F780919F129091A01290932817809327178091A4129091A5129C012E5F3F4F40911B172230310570F4406C40931B170E94DF5028E0FC01A9E2B7E101900D922A95E1F7CF
S28400B68009C0242F2F73206820931B1790932A178093291784EC99E59093511780935017C1E0C0934F17C093FA1686E197E10E944151C093661781E0CF910895ADE1B0E0E4E6FBE50C9489F4FC019281892F869586958370898792959695969593709A87868597859C878B8788E07096DE011D9601900D928A95E1F71D8A1F8A1E8A188ECA
